{
  "contractName": "Counter",
  "abi": [
    {
      "constant": false,
      "inputs": [
        {
          "name": "num",
          "type": "uint256"
        }
      ],
      "name": "initialize",
      "outputs": [],
      "payable": false,
      "stateMutability": "nonpayable",
      "type": "function"
    },
    {
      "constant": true,
      "inputs": [],
      "name": "owner",
      "outputs": [
        {
          "name": "",
          "type": "address"
        }
      ],
      "payable": false,
      "stateMutability": "view",
      "type": "function"
    },
    {
      "constant": true,
      "inputs": [],
      "name": "getCounter",
      "outputs": [
        {
          "name": "",
          "type": "uint256"
        }
      ],
      "payable": false,
      "stateMutability": "view",
      "type": "function"
    },
    {
      "constant": false,
      "inputs": [
        {
          "name": "amount",
          "type": "uint256"
        }
      ],
      "name": "increaseCounter",
      "outputs": [],
      "payable": false,
      "stateMutability": "nonpayable",
      "type": "function"
    }
  ],
  "bytecode": "0x608060405234801561001057600080fd5b506102fb806100206000396000f3fe608060405234801561001057600080fd5b506004361061004c5760003560e01c80638ada066e146100515780638da5cb5b1461006f5780639e80c074146100b9578063fe4b84df146100e7575b600080fd5b610059610115565b6040518082815260200191505060405180910390f35b61007761011f565b604051808273ffffffffffffffffffffffffffffffffffffffff1673ffffffffffffffffffffffffffffffffffffffff16815260200191505060405180910390f35b6100e5600480360360208110156100cf57600080fd5b8101908080359060200190929190505050610149565b005b610113600480360360208110156100fd57600080fd5b8101908080359060200190929190505050610157565b005b6000603354905090565b6000603460009054906101000a900473ffffffffffffffffffffffffffffffffffffffff16905090565b806033540160338190555050565b600060019054906101000a900460ff16806101765750610175610290565b5b8061018d57506000809054906101000a900460ff16155b6101e2576040517f08c379a000000000000000000000000000000000000000000000000000000000815260040180806020018281038252602e8152602001806102a2602e913960400191505060405180910390fd5b60008060019054906101000a900460ff1690506001600060016101000a81548160ff02191690831515021790555060016000806101000a81548160ff02191690831515021790555033603460006101000a81548173ffffffffffffffffffffffffffffffffffffffff021916908373ffffffffffffffffffffffffffffffffffffffff1602179055508160338190555080600060016101000a81548160ff0219169083151502179055505050565b600080303b9050600081149150509056fe436f6e747261637420696e7374616e63652068617320616c7265616479206265656e20696e697469616c697a6564a165627a7a72305820e8275f95bfc99c7722ced3bd449c98f04795daa4f3802e5826d4e7ca6075678c0029",
  "source": "pragma solidity ^0.5.0;\n\n// import \"openzeppelin-eth/contracts/ownership/Ownable.sol\";\nimport \"zos-lib/contracts/Initializable.sol\";\n\ncontract Counter is Initializable {\n  //it keeps a count to demonstrate stage changes\n  uint private count;\n  address private _owner;\n\n  function initialize(uint num) public initializer {\n    _owner = msg.sender;\n    count = num;\n  }\n\n  function owner() public view returns (address) {\n    return _owner;\n  }\n\n  // getter\n  function getCounter() public view returns (uint) {\n    return count;\n  }\n\n  //and it can add to a count\n  function increaseCounter(uint256 amount) public {\n    count = count + amount;\n  }\n\n  //We'll upgrade the contract with this function after deploying it\n  //Function to decrease the counter\n  // function decreaseCounter(uint256 amount) public returns (bool) {\n  //   require(count > amount, \"Cannot be lower than 0\");\n  //   count = count - amount;\n  //   return true;\n  // }\n}\n",
  "sourcePath": "/home/spalladino/Projects/tutorial-kit/contracts/Counter.sol",
  "compiler": {
    "name": "solc",
    "version": "0.5.8+commit.23d335f2.Emscripten.clang"
  },
  "schemaVersion": "3.0.10",
  "updatedAt": "2019-07-03T22:59:02.542Z",
  "devdoc": {
    "methods": {}
  },
  "userdoc": {
    "methods": {}
  }
}